:020000040800F2
:1000000000500020D10C0008990200089D02000851
:10001000A1020008A5020008A902000800000000D3
:10002000000000000000000000000000AD02000819
:10003000B102000800000000B5020008B902000883
:10004000190D0008190D0008190D0008190D0008F8
:10005000190D0008190D0008190D0008190D0008E8
:10006000190D0008190D0008190D0008190D0008D8
:10007000190D0008190D0008190D0008190D0008C8
:10008000190D0008190D0008190D0008190D0008B8
:10009000190D0008190D0008190D0008190D0008A8
:1000A000190D0008190D0008190D0008190D000898
:1000B000190D0008190D0008190D0008190D000888
:1000C000190D0008190D0008190D0008190D000878
:1000D000190D0008190D0008190D0008190D000868
:1000E000190D0008190D0008190D00080000000086
:1000F0000000000000000000000000000000000000
:0C01000000000000000000005FF808F1A3
:10010C0010B5054C237833B9044B13B10448AFF345
:10011C0000800123237010BD0C00002000000000A3
:10012C00780D0008084B10B51BB108490848AFF30F
:10013C0000800848036803B910BD074B002BFBD0A7
:10014C00BDE81040184700BF000000001000002060
:10015C00780D00080C00002000000000F8B50446E3
:10016C000D4616461F4600F01FFD80B93946304635
:10017C0000F01AFDB0FA80F252093946304600F010
:10018C001BFD2946204600F00FFD0028F9D0F8BDD4
:10019C0030B591B02822002106A800F0DFFD002424
:1001AC0001940294039404940594012206924FF452
:1001BC00803307930A9202250D950E934FF4E013AA
:1001CC000F9306A800F0F8F80F23019302950394FF
:1001DC004FF4806304930594294601A800F024FB96
:1001EC0011B030BD08B500F0ADF8FFF7D1FF00F04D
:1001FC000BF80123024A19460248FFF7AFFFF8E754
:10020C00000C01400008014070B588B00024049433
:10021C000594069407941A4B9A6942F020029A614D
:10022C009A6902F020020192019A9A6942F0040242
:10023C009A619A6902F004020292029A9A6942F057
:10024C0008029A619B6903F008030393039B0D4E0C
:10025C0001221146304600F0AFFC012504950594AF
:10026C00069504A9084800F0B3FB0495059506947F
:10027C000223079304A9304600F0AAFB08B070BD16
:10028C0000100240000C014000080140704700BF04
:10029C00FEE700BFFEE700BFFEE700BFFEE700BFC2
:1002AC00704700BF704700BF704700BF08B500F033
:1002BC005BF808BD82B00E4B9A6942F001029A615C
:1002CC009A6902F001020092009ADA6942F08052B7
:1002DC00DA61DB6903F080530193019B054A536893
:1002EC0023F0E06343F00073536002B0704700BF2B
:1002FC00001002400000014010B504460E4B187867
:10030C004FF47A73B3FBF0F30C4A1068B0FBF3F0C4
:10031C0000F09CFC58B90F2C0BD8002221464FF052
:10032C00FF3000F061FC064B1C60002010BD01206A
:10033C0010BD012010BD00BF0400002008000020EB
:10034C000000002008B5074A136843F0100313603F
:10035C00032000F037FC0020FFF7CEFFFFF7AAFFC9
:10036C00002008BD00200240034A136803490978A5
:10037C000B441360704700BF2800002004000020CD
:10038C00014B1868704700BF2800002082B0084B52
:10039C001B68084AA2FB03235B0A00FB03F00190D5
:1003AC0000BF019B5A1E0192002BF9D102B070477D
:1003BC0008000020D34D621070B582B0044603686B
:1003CC0013F0010F6BD0A84B5B6803F00C03042BEC
:1003DC000AD0A54B5B6803F00C03082B0DD1A24B84
:1003EC005B6813F4803F08D09F4B1B6813F4003FED
:1003FC0055D06368002B52D1B8E16368B3F5803FE8
:10040C0005D1994A136843F48033136026E063B92D
:10041C0003F1804303F504331A6822F480321A6026
:10042C001A6822F480221A6018E0B3F5A02F0CD1C0
:10043C0003F18043A3F53C331A6842F480221A601E
:10044C001A6842F480321A6008E0874B1A6822F46A
:10045C0080321A601A6822F480221A6063687BB1B9
:10046C00FFF78EFF054605E0FFF78AFF401B642867
:10047C0000F27E817C4B1B6813F4003FF4D00EE03D
:10048C00FFF77EFF054605E0FFF77AFF401B642867
:10049C0000F27081744B1B6813F4003FF4D1236895
:1004AC0013F0020F50D0704B5B6813F00C0F0AD096
:1004BC006D4B5B6803F00C03082B16D16A4B5B6821
:1004CC0013F4803F11D1684B1B6813F0020F03D05B
:1004DC002369012B40F05081634A136823F0F80321
:1004EC00616943EAC10313602EE02369D3B1012291
:1004FC005E4B1A60FFF744FF054605E0FFF740FF2F
:10050C00401B022800F23A81574B1B6813F0020F74
:10051C00F4D0554A136823F0F803616943EAC10328
:10052C00136011E00022514B1A60FFF729FF0546BA
:10053C0005E0FFF725FF401B022800F221814A4B02
:10054C001B6813F0020FF4D1236813F0080F29D0A5
:10055C00A369ABB10122464B1A60FFF711FF0546A8
:10056C0005E0FFF70DFF401B022800F20B813E4B0C
:10057C005B6A13F0020FF4D00120FFF707FF11E0C4
:10058C0000223B4B1A60FFF7FBFE054605E0FFF728
:10059C00F7FE401B022800F2F780334B5B6A13F026
:1005AC00020FF4D1236813F0040F00F089802E4B56
:1005BC00DB6913F0805F0BD12B4BDA6942F0805270
:1005CC00DA61DB6903F080530193019B012500E0A4
:1005DC000025284B1B6813F4807F13D1254A136820
:1005EC0043F480731360FFF7CBFE064605E0FFF77C
:1005FC00C7FE801B642800F2C9801E4B1B6813F4D5
:10060C00807FF4D0E368012B05D1174A136A43F0BD
:10061C000103136222E063B903F1804303F5043351
:10062C001A6A22F001021A621A6A22F004021A6291
:10063C0014E0052B09D10C4B1A6A42F004021A6221
:10064C001A6A42F001021A6208E0074B1A6A22F099
:10065C0001021A621A6A22F004021A62E368CBB130
:10066C00FFF78EFE06460FE00010024000004242EB
:10067C008004424200700040FFF782FE801B41F272
:10068C008833984200F28480494B1B6A13F0020FA6
:10069C00F2D00FE0FFF774FE064606E0FFF770FE9F
:1006AC00801B41F28833984274D8414B1B6A13F07B
:1006BC00020FF3D125B13E4AD36923F08053D361A5
:1006CC00E369002B68D03A4A526802F00C02082AFF
:1006DC0064D0022B37D10022364B1A60FFF750FE44
:1006EC00054604E0FFF74CFE401B022858D8304B5F
:1006FC001B6813F0007FF5D1236AB3F5803F06D158
:10070C002B494B6823F40032A36813434B602848F1
:10071C00436823F47411236A626A13430B434360E6
:10072C000122244B1A60FFF72BFE044604E0FFF76E
:10073C0027FE001B022835D81D4B1B6813F0007FC9
:10074C00F5D0002031E000221A4B1A60FFF718FE9A
:10075C00044604E0FFF714FE001B022824D8144BB7
:10076C001B6813F0007FF5D100201EE001201CE077
:10077C0003201AE0032018E0012016E0032014E007
:10078C00032012E0032010E003200EE003200CE015
:10079C0003200AE0032008E0002006E0012004E02A
:1007AC00032002E0032000E0032002B070BD00BF74
:1007BC00001002406000424230B486B0164D02ACCC
:1007CC0028686968AA68EB680FC42B8AADF80430F6
:1007DC00124B5B6803F00C02082A19D1C3F3834255
:1007EC0006A90A4412F8100C13F4803F0CD00B4BE2
:1007FC005B68C3F340430B4413F8142C084B03FB06
:10080C0000F0B0FBF2F004E0064B03FB00F000E05C
:10081C00034806B030BC7047900D00080010024031
:10082C0000127A0000093D0070B5654B1B6803F09F
:10083C0007038B420BD2624A136823F007030B4366
:10084C001360136803F00703994240F0A880036813
:10085C0013F0020F17D013F0040F04D0594A536849
:10086C0043F4E0635360036813F0080F04D0554A57
:10087C00536843F460535360524C636823F0F002A6
:10088C008368134363600D460446036813F0010F3D
:10089C004DD04268012A05D14A4B1B6813F4003F26
:1008AC000DD17EE0022A05D1464B1B6813F0007F68
:1008BC0005D178E0434B1B6813F0020F75D041490A
:1008CC004B6823F0030313434B60FFF759FD0646B7
:1008DC006368012B0ED106E0FFF752FD801B41F23D
:1008EC008833984263D8374B5B6803F00C03042BB6
:1008FC00F2D11CE0022B15D106E0FFF741FD801B65
:10090C0041F28833984254D82E4B5B6803F00C03A9
:10091C00082BF2D10BE0FFF733FD801B41F288333B
:10092C00984248D8274B5B6813F00C0FF3D1244B3B
:10093C001B6803F007039D420AD2214A136823F077
:10094C0007032B431360136803F007039D4234D154
:10095C00236813F0040F06D01A494B6823F4E062A5
:10096C00E36813434B60236813F0080F07D0154A54
:10097C00536823F46053216943EAC1035360FFF7C2
:10098C001BFF104B5B68C3F303130F4AD35CD840B7
:10099C000E4B18600020FFF7AFFC002070BD01204B
:1009AC0070BD012070BD012070BD012070BD032001
:1009BC0070BD032070BD032070BD012070BD00BF51
:1009CC000020024000100240A40D00080800002086
:1009DC00F0B583B000263446D5E00122A2400B6866
:1009EC0013409A4240F0CE804D68122D2DD00BD87A
:1009FC00022D27D003D85DB3012D1ED035E0032D79
:100A0C0030D0112D1BD030E0614FBD4220D008D822
:100A1C00A7F58017BD421BD007F58037BD4224D106
:100A2C0016E05C4FBD4213D007F58037BD420FD0A6
:100A3C00A7F58017BD4218D10AE0CE6815E0CE6844
:100A4C00043612E0CE6808360FE0CE680C360CE0A7
:100A5C008D684DB1012D02D10261082605E042617D
:100A6C00082602E0002600E00426FF2B01D886466B
:100A7C0001E000F1040EFF2B01D8A20002E0A4F16A
:100A8C0008029200DEF800700F25954027EA050554
:100A9C0006FA02F22A43CEF800204A6812F0805F70
:100AAC0070D03D4A956945F001059561926902F057
:100ABC0001020192019AA708BD1C384A52F8255030
:100ACC0004F0030292004FF00F0E0EFA02FE25EA1C
:100ADC000E0E334DA8420DD005F58065A8420BD003
:100AEC0005F58065A84209D005F58065A84207D1B7
:100AFC00032506E0002504E0012502E0022500E0C4
:100B0C00042505FA02F24EEA02020237234D45F89B
:100B1C0027204A6812F4803F05D005F580652A68C5
:100B2C001A432A6004E01F4D2A6822EA03022A6055
:100B3C004A6812F4003F04D01A4D6A681A436A607E
:100B4C0004E0184D6A6822EA03026A604A6812F4EB
:100B5C00801F04D0134DAA681A43AA6004E0114DFB
:100B6C00AA6822EA0302AA604A6812F4001F04D0A1
:100B7C000C4DEA681343EB6004E00A4DEA6822EA84
:100B8C000303EB6001340F2C7FF627AF03B0F0BDED
:100B9C000000211000003110001002400000014044
:100BAC0000080140000401408368194201D0012073
:100BBC0070470020704700BF0AB1016170470904FB
:100BCC0001617047074AD36823F4E0631B041B0CD4
:100BDC00000200F4E060184340F0BF6040F40030C5
:100BEC00D060704700ED00E030B4164BDB68C3F307
:100BFC000223C3F10704042C28BF04241D1D062D59
:100C0C0001D9DD1E00E00025012303FA04F4013CA8
:100C1C002140A940AB40013B1A400A43002806DAA8
:100C2C0000F00F001201D2B2074B1A5407E0120168
:100C3C00D2B200F1604000F5614080F8002330BC76
:100C4C00704700BF00ED00E014ED00E00138B0F19A
:100C5C00807F0AD2064B5860F021064A82F8231096
:100C6C000020986007221A6070470120704700BF6F
:100C7C0010E000E000ED00E00F4B1A6842F00102BA
:100C8C001A6059680D4A0A405A601A6822F0847238
:100C9C0022F480321A601A6822F480221A605A6890
:100CAC0022F4FE025A604FF41F029A604FF0006269
:100CBC00034B9A60704700BF001002400000FFF821
:100CCC0000ED00E0002103E00B4B5B584350043176
:100CDC000A480B4B42189A42F6D30A4A02E0002308
:100CEC0042F8043B084B9A42F9D3FFF7C5FF00F0DA
:100CFC000FF8FFF777FA7047BC0D000800000020D2
:100D0C000C0000200C0000202C000020FEE700004E
:100D1C000E4B70B51E460E4C0025E41AA410A542CD
:100D2C0004D056F8253098470135F8E700F01EF846
:100D3C00084B094C1E46E41AA4100025A54204D009
:100D4C0056F8253098470135F8E770BDB40D00080A
:100D5C00B40D0008B40D0008B80D00080346024499
:100D6C00934202D003F8011BFAE77047F8B500BFB5
:100D7C00F8BC08BC9E467047F8B500BFF8BC08BC70
:040D8C009E467047C8
:100D900002030405060708090A0B0C0D0E0F1010BC
:100DA0000102000000000000000000000102030436
:040DB0000607080921
:040DB4003101000801
:040DB8000D01000821
:0C0DBC00100000000100000000A24A042A
:0400000508000CD112
:00000001FF
