:020000040800F2
:10000000005000204D1600080504000809040008EF
:100010000D04000811040008150400080000000089
:1000200000000000000000000000000019040008AB
:100030001D04000800000000210400082504000839
:1000400095160008951600089516000895160008E4
:1000500095160008951600089516000895160008D4
:1000600095160008951600089516000895160008C4
:1000700095160008951600089516000895160008B4
:1000800095160008951600089516000895160008A4
:100090009516000895160008951600089516000894
:1000A0009516000895160008951600089516000884
:1000B0009516000895160008951600089516000874
:1000C0009516000895160008951600089516000864
:1000D000951600082D0400089516000895160008CE
:1000E00095160008951600089516000800000000F7
:1000F0000000000000000000000000000000000000
:0C01000000000000000000005FF808F1A3
:10010C0010B5054C237833B9044B13B10448AFF345
:10011C0000800123237010BD34000020000000007B
:10012C00F4160008084B10B51BB108490848AFF38A
:10013C0000800848036803B910BD074B002BFBD0A7
:10014C00BDE81040184700BF000000003800002038
:10015C00F4160008340000200000000008B501224D
:10016C0001F090F908BD00BF08B5002201F08AF932
:10017C0008BD00BF08B501210148FFF7F5FF08BD18
:10018C00000C014008B501F075F908B1012008BD5B
:10019C00002008BD10B590B02822002106A801F05F
:1001AC009BFA002401940294039404940594022372
:1001BC00069301230A9310230B9306A800F03CFD31
:1001CC000F2301930294039404940594214601A8EF
:1001DC0000F06AFF10B010BD08B500F0DFFCFFF7AF
:1001EC00D9FF00F067F800F0A9F821E04FF47A731A
:1001FC000E222749274800F0C5FA264800F0A2FC39
:10020C002128FAD04FF47A7306222349214800F0B2
:10021C002BFB204800F096FC2228FAD01E4B5B7872
:10022C00522B05D101221D4B1A60FFF7A3FF03E0EF
:10023C001A4B1B68002BD9D001211948FFF7A2FFDC
:10024C0080B14FF47A7309221649124800F09AFAD9
:10025C00104800F077FC2128FAD001211248FFF752
:10026C007DFF0FE04FF47A7309221049094800F022
:10027C0089FA084800F066FC2128FAD001210A48C6
:10028C00FFF772FF4FF47A7000F0ACFCD0E700BFC0
:10029C0018000020680000205400002050000020AE
:1002AC000008014000000020000C01400C00002060
:1002BC00704700BF70B588B0002404940594069470
:1002CC0007941B4B9A6942F020029A619A6902F0DA
:1002DC0020020192019A9A6942F004029A619A6989
:1002EC0002F004020292029A9A6942F008029A61A0
:1002FC009B6903F008030393039B0E4E01221146E6
:10030C00304601F0BFF801250495059402240694AB
:10031C0004A9094800F0C2FF04950595069403232F
:10032C00079304A9304600F0B9FF08B070BD00BFB8
:10033C0000100240000C01400008014008B50A48BA
:10034C000A4B03604FF4E133436000238360C360C6
:10035C0003610C2242618361C36100F0E1F908B1D1
:10036C00FFF7A6FF08BD00BF680000200038014061
:10037C0030B587B00023029303930493059302686E
:10038C001B4B9A4231D103F558439A6942F480428F
:10039C009A619A6902F480420092009A9A6942F03A
:1003AC0004029A619B6903F004030193019B4FF4CF
:1003BC000073029302230393032305930D4D02A9AB
:1003CC00284600F06BFF4FF48063029300240394E3
:1003DC00049402A9284600F061FF224621462520FC
:1003EC0001F0B4F8252001F0E3F807B030BD00BFF0
:1003FC000038014000080140704700BFFEE700BF15
:10040C00FEE700BFFEE700BFFEE700BF704700BF7E
:10041C00704700BF704700BF08B500F0D1FB08BDA6
:10042C0008B5024800F0F8FA08BD00BF68000020CB
:10043C0082B00E4B9A6942F001029A619A6902F0FD
:10044C0001020092009ADA6942F08052DA61DB69AB
:10045C0003F080530193019B054A536823F0E0633A
:10046C0043F08063536002B0704700BF001002403D
:10047C00000001400268D36823F49073D3600268D3
:10048C00536923F001035361202380F83A307047FD
:10049C0090F83930DBB2212B2BD18368B3F5805F18
:1004AC000FD1036A02681B88C3F308035360036906
:1004BC001BB9036A0233036209E0036A0133036266
:1004CC0005E00268036A591C01621B785360C38CF7
:1004DC009BB2013B9BB2C3846BB90268D36823F017
:1004EC008003D3600268D36843F04003D3600020DC
:1004FC007047022070470020704700BF2DE9F84379
:10050C00814601680B6923F44052C36813430B61A5
:10051C00816803691943436919430068C26822F46E
:10052C00B05323F00C030B43C360D9F800104B6994
:10053C0023F44072D9F8183013434B61D9F80050AA
:10054C005B4B9D4259D100F099FE00EB800000EB13
:10055C008000D9F80440A400B0FBF4F4554EA6FB7F
:10056C0004346409240100F089FE00EB800000EBE8
:10057C008000D9F804309B00B0FBF3F700F07EFE4E
:10058C0000EB800000EB8000D9F804309B00B0FB3E
:10059C00F3F3A6FB03235B094FF0640808FB13730A
:1005AC001B013233A6FB03235B0903F0F0031C444D
:1005BC0000F064FE00EB800000EB8000D9F8043002
:1005CC009B00B0FBF3F700F059FE00EB800000EB52
:1005DC008000D9F804309B00B0FBF3F3A6FB032397
:1005EC005B0908FB13731B013233A6FB0323C3F314
:1005FC0043131C44AC60BDE8F88300F02FFE00EB05
:10060C00800000EB8000D9F80440A400B0FBF4F4A7
:10061C00284EA6FB04346409240100F01FFE00EBF5
:10062C00800000EB8000D9F804309B00B0FBF3F79E
:10063C0000F014FE00EB800000EB8000D9F80430D1
:10064C009B00B0FBF3F3A6FB03235B094FF064089C
:10065C0008FB13731B013233A6FB03235B0903F066
:10066C00F0031C4400F0FAFD00EB800000EB80006E
:10067C00D9F804309B00B0FBF3F700F0EFFD00EB72
:10068C00800000EB8000D9F804309B00B0FBF3F342
:10069C00A6FB03235B0908FB13731B013233A6FB78
:1006AC000323C3F343131C44AC60BDE8F88300BFC1
:1006BC00003801401F85EB512DE9F04105460F46EE
:1006CC0016469846069C1EE0B4F1FF3F1BD02CB199
:1006DC0000F082FAC8EB0000844214D22A68D36876
:1006EC0023F4D073D3602A68536923F00103536158
:1006FC00202385F8393085F83A30002385F83830D6
:10070C000320BDE8F0812B681B6837EA03030CBF9C
:10071C0001230023B342D7D00020BDE8F08100BFF5
:10072C0068B310B5044690F8393013F0FF0F04D1BC
:10073C00002380F83830FFF71BFE242384F839306F
:10074C002268D36823F40053D3602046FFF7D6FE0B
:10075C002268136923F4904313612268536923F0D0
:10076C002A0353612268D36843F40053D3600020FA
:10077C00E063202384F8393084F83A3010BD01202E
:10078C00704700BF2DE9F04182B01E4690F8393019
:10079C00DBB2202B56D104460D469046002953D08F
:1007AC00002A53D090F83830012B51D0012380F817
:1007BC0038300023C363212380F8393000F00CFA61
:1007CC000746A4F82480A4F8268027E0E38C9BB28B
:1007DC00013B9BB2E384A368B3F5805F12D1009612
:1007EC003B46002280212046FFF766FF90BB226823
:1007FC002B88C3F30803536023690BB902350DE052
:10080C0001350BE000963B46002280212046FFF785
:10081C0053FF08BB23682A785A600135E38C9BB2DE
:10082C00002BD3D100963B46002240212046FFF7F7
:10083C0043FF034690B9202284F83920002284F823
:10084C0038200CE002230AE0012308E0012306E033
:10085C00022304E0032302E0032300E003231846F1
:10086C0002B0BDE8F08100BF2DE9F04182B01E4618
:10087C0090F83A30DBB2202B5BD104460D46904603
:10088C00002958D0002A58D090F83830012B56D077
:10089C00012380F838300023C363222380F83A30D8
:1008AC0000F09AF90746A4F82C80A4F82E8035E0C5
:1008BC00E38D9BB2013B9BB2E385A368B3F5805FEC
:1008CC0017D100963B46002220212046FFF7F4FE6C
:1008DC00002836D1236933B923685B68C3F3080356
:1008EC0025F8023B1AE023685B68DBB225F8013B74
:1008FC0014E000963B46002220212046FFF7DCFE48
:10090C0008BB236923B923685B682B70013505E0AC
:10091C0023685B6803F07F032B700135E38D9BB27A
:10092C00002BC5D1202384F83A30002084F83800FD
:10093C000AE0022008E0012006E0012004E0022089
:10094C0002E0032000E0032002B0BDE8F08100BF0C
:10095C00704700BF08B50168CB6823F04003CB603B
:10096C00202380F83930FFF7F3FF002008BD00BFCB
:10097C00704700BF08B590F83A30DBB2222B44D157
:10098C008368B3F5805F13D1826A036943B9036846
:10099C005B68C3F308031380836A0233836218E035
:1009AC0003685B68DBB21380836A0133836210E0F7
:1009BC00036933B9836A5A1C8262026852681A70DE
:1009CC0007E0826A531C836203685B6803F07F0351
:1009DC001370C38D9BB2013B9BB2C385BBB902683C
:1009EC00D36823F02003D3600268D36823F48073A8
:1009FC00D3600268536923F001035361202380F80C
:100A0C003A30FFF7B5FF002008BD022008BD0020DA
:100A1C0008BD00BF704700BF10B5044602681368DC
:100A2C00D168526913F00F0009D113F0200F06D0D2
:100A3C0011F0200F03D02046FFF79CFF10BD0028BB
:100A4C0062D012F0010202D111F4907F5CD013F04D
:100A5C00010F06D011F4807F03D0E06B40F0010051
:100A6C00E06313F0040F04D01AB1E06B40F0020005
:100A7C00E06313F0020F04D01AB1E06B40F00400F5
:100A8C00E06313F0080F04D01AB1E26B42F00802D5
:100A9C00E263E26B002A4AD013F0200F05D011F06C
:100AAC00200F02D02046FFF765FF23685B6903F037
:100ABC004003E26B12F0080F00D1FBB12046FFF7A8
:100ACC00D9FC23685A6912F0400F13D05A6922F0EE
:100ADC0040025A61636B4BB1154A5A63606B00F06C
:100AEC00D7FC20B3606B436B984710BD2046FFF7D3
:100AFC0091FF10BD2046FFF78DFF10BD2046FFF77C
:100B0C0089FF0023E36310BD13F0800F06D011F0B2
:100B1C00800F03D02046FFF7BBFC10BD13F0400F35
:100B2C0005D011F0400F02D02046FFF713FF10BD87
:100B3C00410B000808B5406A0023C385C384FFF746
:100B4C0069FF08BD90F8393090F83A0018437047A7
:100B5C0010B504460E4B18784FF47A73B3FBF0F3D0
:100B6C000C4A1068B0FBF3F000F02EFD58B90F2CB6
:100B7C000BD8002221464FF0FF3000F0E7FC064B6B
:100B8C001C60002010BD012010BD012010BD00BF55
:100B9C002C000020300000202800002008B5074A57
:100BAC00136843F010031360032000F0BDFC002019
:100BBC00FFF7CEFFFFF73CFC002008BD00200240F1
:100BCC00034A1368034909780B441360704700BF4C
:100BDC00A80000202C000020014B1868704700BFB3
:100BEC00A800002038B50446FFF7F6FF0546B4F11F
:100BFC00FF3F02D0044B1B781C44FFF7EDFF401B5A
:100C0C008442FAD838BD00BF2C00002082B0084BBB
:100C1C001B68084AA2FB03235B0A00FB03F001904C
:100C2C0000BF019B5A1E0192002BF9D102B07047F4
:100C3C0030000020D34D621070B582B004460368BA
:100C4C0013F0010F6BD0A84B5B6803F00C03042B63
:100C5C000AD0A54B5B6803F00C03082B0DD1A24BFB
:100C6C005B6813F4803F08D09F4B1B6813F4003F64
:100C7C0055D06368002B52D1B8E16368B3F5803F5F
:100C8C0005D1994A136843F48033136026E063B9A5
:100C9C0003F1804303F504331A6822F480321A609E
:100CAC001A6822F480221A6018E0B3F5A02F0CD138
:100CBC0003F18043A3F53C331A6842F480221A6096
:100CCC001A6842F480321A6008E0874B1A6822F4E2
:100CDC0080321A601A6822F480221A6063687BB131
:100CEC00FFF77AFF054605E0FFF776FF401B642807
:100CFC0000F27E817C4B1B6813F4003FF4D00EE0B5
:100D0C00FFF76AFF054605E0FFF766FF401B642806
:100D1C0000F27081744B1B6813F4003FF4D123680C
:100D2C0013F0020F50D0704B5B6813F00C0F0AD00D
:100D3C006D4B5B6803F00C03082B16D16A4B5B6898
:100D4C0013F4803F11D1684B1B6813F0020F03D0D2
:100D5C002369012B40F05081634A136823F0F80398
:100D6C00616943EAC10313602EE02369D3B1012208
:100D7C005E4B1A60FFF730FF054605E0FFF72CFFCE
:100D8C00401B022800F23A81574B1B6813F0020FEC
:100D9C00F4D0554A136823F0F803616943EAC103A0
:100DAC00136011E00022514B1A60FFF715FF054646
:100DBC0005E0FFF711FF401B022800F221814A4B8E
:100DCC001B6813F0020FF4D1236813F0080F29D01D
:100DDC00A369ABB10122464B1A60FFF7FDFE054635
:100DEC0005E0FFF7F9FE401B022800F20B813E4B99
:100DFC005B6A13F0020FF4D00120FFF707FF11E03C
:100E0C0000223B4B1A60FFF7E7FE054605E0FFF7B3
:100E1C00E3FE401B022800F2F780334B5B6A13F0B1
:100E2C00020FF4D1236813F0040F00F089802E4BCD
:100E3C00DB6913F0805F0BD12B4BDA6942F08052E7
:100E4C00DA61DB6903F080530193019B012500E01B
:100E5C000025284B1B6813F4807F13D1254A136897
:100E6C0043F480731360FFF7B7FE064605E0FFF707
:100E7C00B3FE801B642800F2C9801E4B1B6813F460
:100E8C00807FF4D0E368012B05D1174A136A43F035
:100E9C000103136222E063B903F1804303F50433C9
:100EAC001A6A22F001021A621A6A22F004021A6209
:100EBC0014E0052B09D10C4B1A6A42F004021A6299
:100ECC001A6A42F001021A6208E0074B1A6A22F011
:100EDC0001021A621A6A22F004021A62E368CBB1A8
:100EEC00FFF77AFE06460FE0001002400000424277
:100EFC008004424200700040FFF76EFE801B41F2FE
:100F0C008833984200F28480494B1B6A13F0020F1D
:100F1C00F2D00FE0FFF760FE064606E0FFF75CFE3E
:100F2C00801B41F28833984274D8414B1B6A13F0F2
:100F3C00020FF3D125B13E4AD36923F08053D3611C
:100F4C00E369002B68D03A4A526802F00C02082A76
:100F5C0064D0022B37D10022364B1A60FFF73CFECF
:100F6C00054604E0FFF738FE401B022858D8304BEA
:100F7C001B6813F0007FF5D1236AB3F5803F06D1CF
:100F8C002B494B6823F40032A36813434B60284869
:100F9C00436823F47411236A626A13430B4343605E
:100FAC000122244B1A60FFF717FE044604E0FFF7FA
:100FBC0013FE001B022835D81D4B1B6813F0007F55
:100FCC00F5D0002031E000221A4B1A60FFF704FE26
:100FDC00044604E0FFF700FE001B022824D8144B43
:100FEC001B6813F0007FF5D100201EE001201CE0EF
:100FFC0003201AE0032018E0012016E0032014E07F
:10100C00032012E0032010E003200EE003200CE08C
:10101C0003200AE0032008E0002006E0012004E0A1
:10102C00032002E0032000E0032002B070BD00BFEB
:10103C00001002406000424230B486B0164D02AC43
:10104C0028686968AA68EB680FC42B8AADF804306D
:10105C00124B5B6803F00C02082A19D1C3F38342CC
:10106C0006A90A4412F8100C13F4803F0CD00B4B59
:10107C005B68C3F340430B4413F8142C084B03FB7D
:10108C0000F0B0FBF2F004E0064B03FB00F000E0D4
:10109C00034806B030BC70470C1700080010024023
:1010AC0000127A0000093D0070B5654B1B6803F017
:1010BC0007038B420BD2624A136823F007030B43DE
:1010CC001360136803F00703994240F0A88003688B
:1010DC0013F0020F17D013F0040F04D0594A5368C1
:1010EC0043F4E0635360036813F0080F04D0554ACF
:1010FC00536843F460535360524C636823F0F0021E
:10110C008368134363600D460446036813F0010FB4
:10111C004DD04268012A05D14A4B1B6813F4003F9D
:10112C000DD17EE0022A05D1464B1B6813F0007FDF
:10113C0005D178E0434B1B6813F0020F75D0414981
:10114C004B6823F0030313434B60FFF745FD064642
:10115C006368012B0ED106E0FFF73EFD801B41F2C8
:10116C008833984263D8374B5B6803F00C03042B2D
:10117C00F2D11CE0022B15D106E0FFF72DFD801BF0
:10118C0041F28833984254D82E4B5B6803F00C0321
:10119C00082BF2D10BE0FFF71FFD801B41F28833C7
:1011AC00984248D8274B5B6813F00C0FF3D1244BB3
:1011BC001B6803F007039D420AD2214A136823F0EF
:1011CC0007032B431360136803F007039D4234D1CC
:1011DC00236813F0040F06D01A494B6823F4E0621D
:1011EC00E36813434B60236813F0080F07D0154ACC
:1011FC00536823F46053216943EAC1035360FFF73A
:10120C001BFF104B5B68C3F303130F4AD35CD8402E
:10121C000E4B18600020FFF79BFC002070BD0120D6
:10122C0070BD012070BD012070BD012070BD032078
:10123C0070BD032070BD032070BD012070BD00BFC8
:10124C00002002400010024020170008300000204F
:10125C00014B1868704700BF3000002008B5FFF73D
:10126C00F7FF044B5B68C3F30223034AD35CD840FB
:10127C0008BD00BF001002403017000808B5FFF78A
:10128C00E7FF044B5B68C3F3C223034AD35CD8402B
:10129C0008BD00BF0010024030170008F0B583B045
:1012AC0000263446D5E00122A2400B6813409A4236
:1012BC0040F0CE804D68122D2DD00BD8022D27D0AA
:1012CC0003D85DB3012D1ED035E0032D30D0112D88
:1012DC001BD030E0614FBD4220D008D8A7F5801755
:1012EC00BD421BD007F58037BD4224D116E05C4FC0
:1012FC00BD4213D007F58037BD420FD0A7F580173C
:10130C00BD4218D10AE0CE6815E0CE68043612E072
:10131C00CE6808360FE0CE680C360CE08D684DB107
:10132C00012D02D10261082605E04261082602E087
:10133C00002600E00426FF2B01D8864601E000F1D0
:10134C00040EFF2B01D8A20002E0A4F108029200C7
:10135C00DEF800700F25954027EA050506FA02F223
:10136C002A43CEF800204A6812F0805F70D03D4AC4
:10137C00956945F001059561926902F001020192AF
:10138C00019AA708BD1C384A52F8255004F00302F4
:10139C0092004FF00F0E0EFA02FE25EA0E0E334DA0
:1013AC00A8420DD005F58065A8420BD005F58065E7
:1013BC00A84209D005F58065A84207D1032506E0AF
:1013CC00002504E0012502E0022500E0042505FAD1
:1013DC0002F24EEA02020237234D45F827204A68F2
:1013EC0012F4803F05D005F580652A681A432A60FF
:1013FC0004E01F4D2A6822EA03022A604A6812F4AC
:10140C00003F04D01A4D6A681A436A6004E0184D14
:10141C006A6822EA03026A604A6812F4801F04D0E8
:10142C00134DAA681A43AA6004E0114DAA6822EA77
:10143C000302AA604A6812F4001F04D00C4DEA683B
:10144C001343EB6004E00A4DEA6822EA0303EB6005
:10145C0001340F2C7FF627AF03B0F0BD0000211034
:10146C000000311000100240000001400008014053
:10147C00000401408368194201D00120704700200C
:10148C00704700BF0AB101617047090401617047E0
:10149C0008B590F82130022B03D00423836301207C
:1014AC0008BD0268136823F00E031360026813680A
:1014BC0023F0010313600368194A934211D01432CC
:1014CC00934210D0143293420FD0143293420FD067
:1014DC00143293420FD0143293420FD14FF4801236
:1014EC000EE001220CE010220AE04FF4807207E0BB
:1014FC004FF4805204E04FF4803201E04FF08072E0
:10150C00084B5A60012380F82130002380F82030EA
:10151C00436B13B19847002008BD002008BD00BFE5
:10152C000800024000000240074AD36823F4E0633D
:10153C001B041B0C000200F4E060184340F0BF6079
:10154C0040F40030D060704700ED00E030B4164B32
:10155C00DB68C3F30223C3F10704042C28BF042463
:10156C001D1D062D01D9DD1E00E00025012303FA07
:10157C0004F4013C2140A940AB40013B1A400A4312
:10158C00002806DA00F00F001201D2B2074B1A54F1
:10159C0007E01201D2B200F1604000F5614080F822
:1015AC00002330BC704700BF00ED00E014ED00E0FC
:1015BC00420900F01F00012303FA00F0014B43F82D
:1015CC002200704700E100E00138B0F1807F0AD2C0
:1015DC00064B5860F021064A82F8231000209860D0
:1015EC0007221A6070470120704700BF10E000E02E
:1015FC0000ED00E00F4B1A6842F001021A605968C6
:10160C000D4A0A405A601A6822F0847222F4803221
:10161C001A601A6822F480221A605A6822F4FE02B8
:10162C005A604FF41F029A604FF00062034B9A60AD
:10163C00704700BF001002400000FFF800ED00E012
:10164C00002103E00B4B5B58435004310A480B4B11
:10165C0042189A42F6D30A4A02E0002342F8043BAD
:10166C00084B9A42F9D3FFF7C5FF00F00FF8FEF7CD
:10167C00B3FD704740170008000000203400002024
:10168C0034000020AC000020FEE700000E4B70B5CB
:10169C001E460E4C0025E41AA410A54204D056F8A0
:1016AC00253098470135F8E700F01EF8084B094C37
:1016BC001E46E41AA4100025A54204D056F8253085
:1016CC0098470135F8E770BD38170008381700083F
:1016DC00381700083C17000803460244934202D016
:1016EC0003F8011BFAE77047F8B500BFF8BC08BC5B
:1016FC009E467047F8B500BFF8BC08BC9E467047C4
:10170C0002030405060708090A0B0C0D0E0F101036
:10171C0001020000000000000000000001020304B0
:0C172C0006070809000000000102030489
:041738003101000873
:04173C000D01000893
:101740004F4F4F4F4F4F0A0D000000005858585848
:1017500058580A0D0000000023303030313A303044
:101760003032230A0D0000001000000001000000CC
:0417700000A24A0485
:040000050800164D8C
:00000001FF
